S01200004D792050726F6A6563742E7372656355
S11300000C942A000C943F000C943F000C943F0085
S11300100C943F000C943F000C943F000C943F0060
S11300200C943F000C943F000C943F000C943F0050
S11300300C943F000C943F000C943F000C943F0040
S11300400C943F000C943F000C943F000C943F0030
S11300500C943F0011241FBECFE5D8E0DEBFCDBF16
S113006010E0A0E6B0E0E4E0F9E002C005900D92F3
S1130070AA3DB107D9F70E9441000C9480040C9466
S11300800000CF93DF93CDB7DEB766970FB6F89431
S1130090DEBF0FBECDBF13E019831A821B82CE01CF
S11300A001960E94F7021C8381E08D831E82CE019B
S11300B004960E94F70288E0E0E6F0E0DE0117967D
S11300C001900D928A95E1F788E0E8E6F0E0DE0120
S11300D01F9601900D928A95E1F70E9453020E94A7
S11300E0D90160E080E00E94180280E890E00E945C
S11300F00B0261E080E00E94180280E990E00E9417
S11301000B02F12C00E00F2EF5E0EF2EF02D23E092
S1130110F21609F4B3C060E080E00E94180280E89F
S113012090E00E940B0261E080E00E94180280E9E6
S113013090E00E940B020E946E02182F8F3FD9F3A9
S11301408A3070F461E08E2D0E9418028AE20E94C7
S1130150A501E394000F802F880F880F080F010F6B
S11301601D3309F070C0093B09F04DC00E944F02D5
S113017085E990E00E940B0221E047E062E0CE01B5
S113018007960E942502CE0101960E94FE02CE012E
S113019004960E9414033FE786E998E931508040B1
S11301A09040E1F700C000000E944F0283EA90E013
S11301B00E940B0221E047E063E0CE010F960E940B
S11301C02502CE0104960E94FE02CE0101960E94F1
S11301D014032FE736E988E9215030408040E1F7E5
S11301E000C00000CE0104960E941403CE010196C3
S11301F00E9414030E944F02F12C00E00F2EF5E040
S1130200EF2EF02D20C0093BF1F00E944F0282EB4B
S113021090E00E940B0221E047E063E0CE010F96DC
S11302200E9425029FE726E938E99150204030409A
S1130230E1F700C000000E944F02F39400E00F2E8B
S1130240F5E0EF2EF02D133609F061CF0E944F0236
S113025060E080E00E94180280E890E00E940B02B7
S113026061E080E00E94180280E990E00E940B02A5
S113027000E00F2EF5E0EF2EF02D49CF82E08F1530
S113028008F045CF82EC90E00E940B0261E083E02D
S11302900E94180284ED90E00E940B0221E049E0E4
S11302A063E0CE010F960E9425029AEA2AEA3AEA0E
S11302B08AE29150204030408040D9F70E944F029A
S11302C0F12C25CF0F931F93CF93DF9300D000D051
S11302D0CDB7DEB7082F84E0898385E08A8386E082
S11302E08B8387E08C8310E014C0402F50E0012EF4
S11302F002C0559547950A94E2F74170E1E0F0E0B9
S1130300EC0FFD1FE10FF11D608180E00E94A90345
S11303101F5F143050F30F900F900F900F90DF91E8
S1130320CF911F910F91089541E063E081E00E9415
S1130330A90383EF91E00197F1F700C0000040E0CA
S113034063E081E00E94A9030895CF93C82F41E0A0
S113035061E081E00E94A90340E062E081E00E9444
S1130360A9038C2F82958F700E9462010E949401D0
S11303708C2F0E9462010E949401CF910895CF9323
S1130380C82F40E061E081E00E94A90340E062E000
S113039081E00E94A9038C2F82958F700E946201D4
S11303A00E9494018C2F0E9462010E949401CF91BB
S11303B00895CF93C4E006C041E06C2F80E00E9412
S11303C02A03CF5FC830C0F3C1E006C041E06C2F00
S11303D081E00E942A03CF5FC430C0F38FE097E22C
S11303E00197F1F700C0000082E00E9462010E94C0
S11303F0940182E00E9462010E94940188E00E94BC
S113040062010E9494018CE00E94BF0181E00E947D
S1130410BF01CF910895CF93DF93EC0103C00E94F5
S1130420A501219688818111FACFDF91CF9108959A
S1130430662329F0613021F490E4980F01C0982FCD
S1130440892F80680E94BF010895EF92FF920F9355
S11304501F93CF93DF938C01D62FF42EE22E862F99
S1130460880F880F880F80640E94BF01C0E007C016
S1130470F801EC0FF11D80810E94A501CF5FC83007
S1130480B8F36E2D8F2D0E9418028D2F0E94A501A6
S1130490DF91CF911F910F91FF90EF90089581E02C
S11304A00E94BF010895CF93C0E006C040E06C2FC6
S11304B082E00E942A03CF5FC430C0F3C4E006C0C8
S11304C041E06C2F82E00E942A03CF5FC830C0F362
S11304D06FEF82E00E942C04CF910895AF92BF92F7
S11304E0CF92DF92EF92FF920F931F93CF93DF93FC
S11304F0CDB7DEB769970FB6F894DEBF0FBECDBF98
S113050084E08A8385E08B8386E08C8387E08D8317
S11305101E8281E08F8382E0888783E0898780E17F
S1130520E0E7F0E0DE011A9601900D928A95E1F77A
S1130530B12C47C0CB2CD12CE2E0F0E0EC0FFD1F36
S1130540EC0DFD1DA08040E06A2D82E00E94A9030D
S113055010E02FC0E12EF12CE6E0F0E0EC0FFD1FDF
S1130560EE0DFF1D0081AE014F5F5F4F602F82E0F3
S11305700E944204898181111BC0EE0CFF1CEE0C09
S1130580FF1C81E090E08C0F9D1FE80EF91EF7011F
S1130590EC0DFD1D118507C0AE014F5F5F4F602F4D
S11305A082E00E94420499819923B1F3812F0EC005
S11305B01F5F143078F241E06A2D82E00E94A903A3
S11305C0B39493E09B1508F0B5CF8FEF69960FB6FF
S11305D0F894DEBF0FBECDBFDF91CF911F910F9175
S11305E0FF90EF90DF90CF90BF90AF90089541E0DF
S11305F0FC01618180810E942A030895FC0192819B
S1130600911107C041E0618180810E94A90381E0CA
S11306100895913039F440E0618180810E94A903FA
S113062081E0089582E00895FC019281911107C050
S113063040E0618180810E94A90381E008959130A6
S113064039F441E0618180810E94A90381E0089529
S113065082E00895683008F076C041113CC08130D2
S113066099F028F08230E9F0833041F16EC02AB36A
S113067081E090E002C0880F991F6A95E2F78095A7
S113068082238ABB81E0089527B381E090E002C011
S1130690880F991F6A95E2F78095822387BB81E0D2
S11306A0089524B381E090E002C0880F991F6A95F1
S11306B0E2F78095822384BB81E0089521B381E031
S11306C090E002C0880F991F6A95E2F78095822313
S11306D081BB81E00895813091F028F08230D9F017
S11306E0833029F134C02AB381E090E002C0880F3E
S11306F0991F6A95E2F7822B8ABB81E0089527B39C
S113070081E090E002C0880F991F6A95E2F7822B7E
S113071087BB81E0089524B381E090E002C0880F94
S1130720991F6A95E2F7822B84BB81E0089521B377
S113073081E090E002C0880F991F6A95E2F7822B4E
S113074081BB81E0089582E0089582E0089582E00B
S11307500895683008F078C041113CC0813099F0A8
S113076028F08230E9F0833041F170C02BB381E08E
S113077090E002C0880F991F6A95E2F78095822362
S11307808BBB81E0089528B381E090E002C0880F1C
S1130790991F6A95E2F78095822388BB81E00895CA
S11307A025B381E090E002C0880F991F6A95E2F7B3
S11307B08095822385BB81E0089522B381E090E097
S11307C002C0880F991F6A95E2F78095822382BB45
S11307D081E008954130E1F5813091F028F08230D4
S11307E0D9F0833029F136C02BB381E090E002C008
S11307F0880F991F6A95E2F7822B8BBB81E00895DD
S113080028B381E090E002C0880F991F6A95E2F74F
S1130810822B88BB81E0089525B381E090E002C07B
S1130820880F991F6A95E2F7822B85BB81E00895B2
S113083022B381E090E002C0880F991F6A95E2F725
S1130840822B82BB81E0089582E0089582E00895BE
S113085082E0089582E00895813049F028F08230E2
S113086049F0833051F00CC06BBB81E0089568BB44
S113087081E0089565BB81E0089562BB81E008953D
S113088082E008956830C0F5813091F028F082301C
S1130890D9F0833029F132C089B390E002C0959534
S11308A087956A95E2F78170FA01808381E0089563
S11308B086B390E002C0959587956A95E2F78170BA
S11308C0FA01808381E0089583B390E002C0959596
S11308D087956A95E2F78170FA01808381E0089533
S11308E080B390E002C0959587956A95E2F7817090
S11308F0FA01808381E0089582E0089582E00895FA
S1070900F894FFCF95
S1130904000E10101F1F1F00000E11111F1F1F00C7
S11309140708092F040506780102032D63003D2B03
S113092420456E7465722050415353574F5244000E
S11309344B65793A00202020444F4F52204F5045B4
S11309444E2000202020444F4F5220436C4F5345E7
S113095420000957726F6E672050617373776F724A
S1130964640020444F4F52204C4F434B454420468F
S10D09744F52200031304D494E006F
S9030000FC
